{
  "_format": "hh-sol-artifact-1",
  "contractName": "AuditLedger",
  "sourceName": "contracts/AuditLedger.sol",
  "abi": [
    {
      "anonymous": false,
      "inputs": [
        {
          "indexed": true,
          "internalType": "uint256",
          "name": "entryIndex",
          "type": "uint256"
        },
        {
          "indexed": true,
          "internalType": "bytes32",
          "name": "recordId",
          "type": "bytes32"
        },
        {
          "indexed": true,
          "internalType": "address",
          "name": "actor",
          "type": "address"
        },
        {
          "indexed": false,
          "internalType": "uint8",
          "name": "eventType",
          "type": "uint8"
        },
        {
          "indexed": false,
          "internalType": "uint256",
          "name": "timestamp",
          "type": "uint256"
        }
      ],
      "name": "AuditLogged",
      "type": "event"
    },
    {
      "inputs": [],
      "name": "EVT_ACCESS",
      "outputs": [
        {
          "internalType": "uint8",
          "name": "",
          "type": "uint8"
        }
      ],
      "stateMutability": "view",
      "type": "function"
    },
    {
      "inputs": [],
      "name": "EVT_AI_ANALYSIS",
      "outputs": [
        {
          "internalType": "uint8",
          "name": "",
          "type": "uint8"
        }
      ],
      "stateMutability": "view",
      "type": "function"
    },
    {
      "inputs": [],
      "name": "EVT_ANOMALY",
      "outputs": [
        {
          "internalType": "uint8",
          "name": "",
          "type": "uint8"
        }
      ],
      "stateMutability": "view",
      "type": "function"
    },
    {
      "inputs": [],
      "name": "EVT_CONSENT",
      "outputs": [
        {
          "internalType": "uint8",
          "name": "",
          "type": "uint8"
        }
      ],
      "stateMutability": "view",
      "type": "function"
    },
    {
      "inputs": [],
      "name": "EVT_EXPORT",
      "outputs": [
        {
          "internalType": "uint8",
          "name": "",
          "type": "uint8"
        }
      ],
      "stateMutability": "view",
      "type": "function"
    },
    {
      "inputs": [],
      "name": "EVT_REVOCATION",
      "outputs": [
        {
          "internalType": "uint8",
          "name": "",
          "type": "uint8"
        }
      ],
      "stateMutability": "view",
      "type": "function"
    },
    {
      "inputs": [],
      "name": "EVT_ROLE_CHANGE",
      "outputs": [
        {
          "internalType": "uint8",
          "name": "",
          "type": "uint8"
        }
      ],
      "stateMutability": "view",
      "type": "function"
    },
    {
      "inputs": [],
      "name": "EVT_UPLOAD",
      "outputs": [
        {
          "internalType": "uint8",
          "name": "",
          "type": "uint8"
        }
      ],
      "stateMutability": "view",
      "type": "function"
    },
    {
      "inputs": [
        {
          "internalType": "bytes32",
          "name": "recordId",
          "type": "bytes32"
        }
      ],
      "name": "getEntriesForRecord",
      "outputs": [
        {
          "internalType": "uint256[]",
          "name": "",
          "type": "uint256[]"
        }
      ],
      "stateMutability": "view",
      "type": "function"
    },
    {
      "inputs": [
        {
          "internalType": "uint256",
          "name": "index",
          "type": "uint256"
        }
      ],
      "name": "getEntry",
      "outputs": [
        {
          "internalType": "bytes32",
          "name": "recordId",
          "type": "bytes32"
        },
        {
          "internalType": "address",
          "name": "actor",
          "type": "address"
        },
        {
          "internalType": "uint8",
          "name": "eventType",
          "type": "uint8"
        },
        {
          "internalType": "bytes32",
          "name": "dataHash",
          "type": "bytes32"
        },
        {
          "internalType": "uint256",
          "name": "timestamp",
          "type": "uint256"
        },
        {
          "internalType": "string",
          "name": "description",
          "type": "string"
        }
      ],
      "stateMutability": "view",
      "type": "function"
    },
    {
      "inputs": [
        {
          "internalType": "bytes32",
          "name": "recordId",
          "type": "bytes32"
        },
        {
          "internalType": "uint8",
          "name": "eventType",
          "type": "uint8"
        },
        {
          "internalType": "bytes32",
          "name": "dataHash",
          "type": "bytes32"
        },
        {
          "internalType": "string",
          "name": "description",
          "type": "string"
        }
      ],
      "name": "log",
      "outputs": [
        {
          "internalType": "uint256",
          "name": "index",
          "type": "uint256"
        }
      ],
      "stateMutability": "nonpayable",
      "type": "function"
    },
    {
      "inputs": [],
      "name": "totalEntries",
      "outputs": [
        {
          "internalType": "uint256",
          "name": "",
          "type": "uint256"
        }
      ],
      "stateMutability": "view",
      "type": "function"
    },
    {
      "inputs": [
        {
          "internalType": "uint256",
          "name": "index",
          "type": "uint256"
        },
        {
          "internalType": "bytes32",
          "name": "expectedHash",
          "type": "bytes32"
        }
      ],
      "name": "verifyEntry",
      "outputs": [
        {
          "internalType": "bool",
          "name": "",
          "type": "bool"
        }
      ],
      "stateMutability": "view",
      "type": "function"
    }
  ],
  "bytecode": "0x608060405234801561001057600080fd5b5061095f806100206000396000f3fe608060405234801561001057600080fd5b50600436106100cf5760003560e01c80637fef036e1161008c578063c3e05f2e11610066578063c3e05f2e14610184578063dddef8bf146101a4578063e0baa405146101ac578063e0e366e3146101b457600080fd5b80637fef036e146101345780638f1cd2341461013c578063bae78d7b1461015f57600080fd5b80630b6def93146100d45780633fd36fe8146100f35780634fc84aa414610114578063552a4d591461011c57806356daa4531461012457806371afb8501461012c575b600080fd5b6100dc600581565b60405160ff90911681526020015b60405180910390f35b61010661010136600461061c565b6101bc565b6040519081526020016100ea565b6100dc600181565b6100dc600681565b6100dc600481565b6100dc600381565b600054610106565b61014f61014a3660046106b8565b6103e2565b60405190151581526020016100ea565b61017261016d3660046106da565b610463565b6040516100ea969594939291906106f3565b6101976101923660046106da565b6105ba565b6040516100ea9190610770565b6100dc600881565b6100dc600281565b6100dc600781565b600060018560ff16101580156101d6575060088560ff1611155b6102275760405162461bcd60e51b815260206004820152601f60248201527f41756469744c65646765723a20756e6b6e6f776e206576656e7420747970650060448201526064015b60405180910390fd5b836102745760405162461bcd60e51b815260206004820152601c60248201527f41756469744c65646765723a20656d7074792064617461206861736800000000604482015260640161021e565b600080549050905060006040518060c00160405280888152602001336001600160a01b031681526020018760ff16815260200186815260200142815260200185858080601f01602080910402602001604051908101604052809392919081815260200183838082843760009201829052509390945250508354600181810186559482526020918290208451600590920201908155908301519381018054604085015160ff16600160a01b026001600160a81b03199091166001600160a01b03909616959095179490941790935550606081015160028301556080810151600383015560a0810151909190600482019061036d9082610853565b5050861590506103985760008681526001602081815260408320805492830181558352909120018190555b6040805160ff871681524260208201523391889184917f2df5a52bbb9c96fbbce7ed2c3b2ed46096e19cea8c35f827f41fb80a9f6dca70910160405180910390a495945050505050565b6000805483106104345760405162461bcd60e51b815260206004820181905260248201527f41756469744c65646765723a20696e646578206f7574206f6620626f756e6473604482015260640161021e565b816000848154811061044857610448610913565b90600052602060002090600502016002015414905092915050565b6000806000806000606060008054905087106104c15760405162461bcd60e51b815260206004820181905260248201527f41756469744c65646765723a20696e646578206f7574206f6620626f756e6473604482015260640161021e565b60008088815481106104d5576104d5610913565b60009182526020909120600590910201805460018201546002830154600384015460048501805495965093946001600160a01b03841694600160a01b90940460ff1693908190610524906107ca565b80601f0160208091040260200160405190810160405280929190818152602001828054610550906107ca565b801561059d5780601f106105725761010080835404028352916020019161059d565b820191906000526020600020905b81548152906001019060200180831161058057829003601f168201915b505050505090509650965096509650965096505091939550919395565b60008181526001602090815260409182902080548351818402810184019094528084526060939283018282801561061057602002820191906000526020600020905b8154815260200190600101908083116105fc575b50505050509050919050565b60008060008060006080868803121561063457600080fd5b85359450602086013560ff8116811461064c57600080fd5b935060408601359250606086013567ffffffffffffffff8082111561067057600080fd5b818801915088601f83011261068457600080fd5b81358181111561069357600080fd5b8960208285010111156106a557600080fd5b9699959850939650602001949392505050565b600080604083850312156106cb57600080fd5b50508035926020909101359150565b6000602082840312156106ec57600080fd5b5035919050565b8681526000602060018060a01b0388168184015260ff8716604084015285606084015284608084015260c060a084015283518060c085015260005b8181101561074a5785810183015185820160e00152820161072e565b50600060e0828601015260e0601f19601f83011685010192505050979650505050505050565b6020808252825182820181905260009190848201906040850190845b818110156107a85783518352928401929184019160010161078c565b50909695505050505050565b634e487b7160e01b600052604160045260246000fd5b600181811c908216806107de57607f821691505b6020821081036107fe57634e487b7160e01b600052602260045260246000fd5b50919050565b601f82111561084e57600081815260208120601f850160051c8101602086101561082b5750805b601f850160051c820191505b8181101561084a57828155600101610837565b5050505b505050565b815167ffffffffffffffff81111561086d5761086d6107b4565b6108818161087b84546107ca565b84610804565b602080601f8311600181146108b6576000841561089e5750858301515b600019600386901b1c1916600185901b17855561084a565b600085815260208120601f198616915b828110156108e5578886015182559484019460019091019084016108c6565b50858210156109035787850151600019600388901b60f8161c191681555b5050505050600190811b01905550565b634e487b7160e01b600052603260045260246000fdfea26469706673582212206894e003bd4cc11aef21a3d6086f7b47b8bce6122aca095cbac751847847b2cb64736f6c63430008140033",
  "linkReferences": {},
  "deployedLinkReferences": {}
}