{
  "_format": "hh-sol-artifact-1",
  "contractName": "GenomicRegistry",
  "sourceName": "contracts/GenomicRegistry.sol",
  "abi": [
    {
      "anonymous": false,
      "inputs": [
        {
          "indexed": true,
          "internalType": "bytes32",
          "name": "recordId",
          "type": "bytes32"
        },
        {
          "indexed": true,
          "internalType": "bytes32",
          "name": "genomeHash",
          "type": "bytes32"
        },
        {
          "indexed": true,
          "internalType": "address",
          "name": "submittedBy",
          "type": "address"
        },
        {
          "indexed": false,
          "internalType": "uint256",
          "name": "timestamp",
          "type": "uint256"
        },
        {
          "indexed": false,
          "internalType": "string",
          "name": "sampleId",
          "type": "string"
        }
      ],
      "name": "GenomeRegistered",
      "type": "event"
    },
    {
      "anonymous": false,
      "inputs": [
        {
          "indexed": true,
          "internalType": "bytes32",
          "name": "recordId",
          "type": "bytes32"
        },
        {
          "indexed": true,
          "internalType": "address",
          "name": "revokedBy",
          "type": "address"
        },
        {
          "indexed": false,
          "internalType": "uint256",
          "name": "timestamp",
          "type": "uint256"
        }
      ],
      "name": "GenomeRevoked",
      "type": "event"
    },
    {
      "inputs": [
        {
          "internalType": "bytes32",
          "name": "recordId",
          "type": "bytes32"
        }
      ],
      "name": "getRecord",
      "outputs": [
        {
          "internalType": "bytes32",
          "name": "genomeHash",
          "type": "bytes32"
        },
        {
          "internalType": "address",
          "name": "submittedBy",
          "type": "address"
        },
        {
          "internalType": "uint256",
          "name": "timestamp",
          "type": "uint256"
        },
        {
          "internalType": "string",
          "name": "sampleId",
          "type": "string"
        },
        {
          "internalType": "bool",
          "name": "revoked",
          "type": "bool"
        }
      ],
      "stateMutability": "view",
      "type": "function"
    },
    {
      "inputs": [
        {
          "internalType": "address",
          "name": "submitter",
          "type": "address"
        }
      ],
      "name": "getRecordsBySubmitter",
      "outputs": [
        {
          "internalType": "bytes32[]",
          "name": "",
          "type": "bytes32[]"
        }
      ],
      "stateMutability": "view",
      "type": "function"
    },
    {
      "inputs": [
        {
          "internalType": "bytes32",
          "name": "genomeHash",
          "type": "bytes32"
        },
        {
          "internalType": "string",
          "name": "sampleId",
          "type": "string"
        }
      ],
      "name": "registerGenome",
      "outputs": [
        {
          "internalType": "bytes32",
          "name": "recordId",
          "type": "bytes32"
        }
      ],
      "stateMutability": "nonpayable",
      "type": "function"
    },
    {
      "inputs": [
        {
          "internalType": "bytes32",
          "name": "recordId",
          "type": "bytes32"
        }
      ],
      "name": "revokeGenome",
      "outputs": [],
      "stateMutability": "nonpayable",
      "type": "function"
    },
    {
      "inputs": [
        {
          "internalType": "bytes32",
          "name": "recordId",
          "type": "bytes32"
        },
        {
          "internalType": "bytes32",
          "name": "genomeHash",
          "type": "bytes32"
        }
      ],
      "name": "verifyGenome",
      "outputs": [
        {
          "internalType": "bool",
          "name": "valid",
          "type": "bool"
        },
        {
          "internalType": "uint256",
          "name": "timestamp",
          "type": "uint256"
        }
      ],
      "stateMutability": "view",
      "type": "function"
    }
  ],
  "bytecode": "0x608060405234801561001057600080fd5b50610a22806100206000396000f3fe608060405234801561001057600080fd5b50600436106100575760003560e01c806304be01911461005c578063213681cd1461008b5780639710c8ad146100af5780639b09ea5c146100cf578063c60d9f5a146100f0575b600080fd5b61006f61006a366004610670565b610105565b6040805192151583526020830191909152015b60405180910390f35b61009e610099366004610692565b61013c565b6040516100829594939291906106ab565b6100c26100bd366004610726565b610247565b6040516100829190610756565b6100e26100dd36600461079a565b6102b3565b604051908152602001610082565b6101036100fe366004610692565b61053c565b005b600082815260208190526040812080548291908414801561012b5750600481015460ff16155b925080600201549150509250929050565b60008181526020819052604081206002810154829182916060918391820361017f5760405162461bcd60e51b815260040161017690610816565b60405180910390fd5b80546001820154600283015460048401546003850180546001600160a01b0390941693909160ff169082906101b390610857565b80601f01602080910402602001604051908101604052809291908181526020018280546101df90610857565b801561022c5780601f106102015761010080835404028352916020019161022c565b820191906000526020600020905b81548152906001019060200180831161020f57829003601f168201915b50505050509150955095509550955095505091939590929450565b6001600160a01b0381166000908152600160209081526040918290208054835181840281018401909452808452606093928301828280156102a757602002820191906000526020600020905b815481526020019060010190808311610293575b50505050509050919050565b6000836103025760405162461bcd60e51b815260206004820152601b60248201527f47656e6f6d696352656769737472793a20656d707479206861736800000000006044820152606401610176565b8161034f5760405162461bcd60e51b815260206004820152601f60248201527f47656e6f6d696352656769737472793a20656d7074792073616d706c654964006044820152606401610176565b60408051602081018690526bffffffffffffffffffffffff193360601b169181019190915242605482015260740160408051601f198184030181529181528151602092830120600081815292839052912060020154909150156104035760405162461bcd60e51b815260206004820152602660248201527f47656e6f6d696352656769737472793a207265636f726420616c72656164792060448201526565786973747360d01b6064820152608401610176565b6040518060a00160405280858152602001336001600160a01b0316815260200142815260200184848080601f0160208091040260200160405190810160405280939291908181526020018383808284376000920182905250938552505050602091820181905283815280825260409081902083518155918301516001830180546001600160a01b0319166001600160a01b039092169190911790558201516002820155606082015160038201906104ba90826108f6565b50608091909101516004909101805460ff191691151591909117905533600081815260016020818152604080842080549384018155845292200183905551859083907f65d9e9742cb4be969ff9d74cfbc2dc27e0b1afbfd2b59de543e671cce6caa49f9061052d904290899089906109b6565b60405180910390a49392505050565b6000818152602081905260408120600281015490910361056e5760405162461bcd60e51b815260040161017690610816565b60018101546001600160a01b031633146105ca5760405162461bcd60e51b815260206004820152601a60248201527f47656e6f6d696352656769737472793a206e6f74206f776e65720000000000006044820152606401610176565b600481015460ff161561061f5760405162461bcd60e51b815260206004820181905260248201527f47656e6f6d696352656769737472793a20616c7265616479207265766f6b65646044820152606401610176565b60048101805460ff19166001179055604051339083907f314ecedf156e55770e3474ce560cc91379367a6e786b3ce835d6347d969a5d18906106649042815260200190565b60405180910390a35050565b6000806040838503121561068357600080fd5b50508035926020909101359150565b6000602082840312156106a457600080fd5b5035919050565b8581526000602060018060a01b0387168184015285604084015260a0606084015284518060a085015260005b818110156106f35786810183015185820160c0015282016106d7565b50600060c0828601015260c0601f19601f8301168501019250505061071c608083018415159052565b9695505050505050565b60006020828403121561073857600080fd5b81356001600160a01b038116811461074f57600080fd5b9392505050565b6020808252825182820181905260009190848201906040850190845b8181101561078e57835183529284019291840191600101610772565b50909695505050505050565b6000806000604084860312156107af57600080fd5b83359250602084013567ffffffffffffffff808211156107ce57600080fd5b818601915086601f8301126107e257600080fd5b8135818111156107f157600080fd5b87602082850101111561080357600080fd5b6020830194508093505050509250925092565b60208082526021908201527f47656e6f6d696352656769737472793a207265636f7264206e6f7420666f756e6040820152601960fa1b606082015260800190565b600181811c9082168061086b57607f821691505b60208210810361088b57634e487b7160e01b600052602260045260246000fd5b50919050565b634e487b7160e01b600052604160045260246000fd5b601f8211156108f157600081815260208120601f850160051c810160208610156108ce5750805b601f850160051c820191505b818110156108ed578281556001016108da565b5050505b505050565b815167ffffffffffffffff81111561091057610910610891565b6109248161091e8454610857565b846108a7565b602080601f83116001811461095957600084156109415750858301515b600019600386901b1c1916600185901b1785556108ed565b600085815260208120601f198616915b8281101561098857888601518255948401946001909101908401610969565b50858210156109a65787850151600019600388901b60f8161c191681555b5050505050600190811b01905550565b83815260406020820152816040820152818360608301376000818301606090810191909152601f909201601f191601019291505056fea26469706673582212209b2991ed2674c4715b0cc74a43d27b1c4cb97620976de963b77f32ab936a81d764736f6c63430008140033",
  "linkReferences": {},
  "deployedLinkReferences": {}
}