{"contracts/AccessPolicy.sol":{"AccessPolicy":{"abi":[{"anonymous":false,"inputs":[{"indexed":true,"internalType":"bytes32","name":"recordId","type":"bytes32"},{"indexed":true,"internalType":"address","name":"owner","type":"address"},{"indexed":false,"internalType":"bool","name":"consent","type":"bool"}],"name":"ConsentToggled","type":"event"},{"anonymous":false,"inputs":[{"indexed":true,"internalType":"bytes32","name":"recordId","type":"bytes32"},{"indexed":true,"internalType":"address","name":"owner","type":"address"}],"name":"PolicyCreated","type":"event"},{"anonymous":false,"inputs":[{"indexed":true,"internalType":"bytes32","name":"recordId","type":"bytes32"},{"indexed":true,"internalType":"address","name":"grantee","type":"address"},{"indexed":false,"internalType":"uint8","name":"role","type":"uint8"}],"name":"RoleGranted","type":"event"},{"anonymous":false,"inputs":[{"indexed":true,"internalType":"bytes32","name":"recordId","type":"bytes32"},{"indexed":true,"internalType":"address","name":"grantee","type":"address"}],"name":"RoleRevoked","type":"event"},{"inputs":[],"name":"ROLE_ADMIN","outputs":[{"internalType":"uint8","name":"","type":"uint8"}],"stateMutability":"view","type":"function"},{"inputs":[],"name":"ROLE_LAB","outputs":[{"internalType":"uint8","name":"","type":"uint8"}],"stateMutability":"view","type":"function"},{"inputs":[],"name":"ROLE_NONE","outputs":[{"internalType":"uint8","name":"","type":"uint8"}],"stateMutability":"view","type":"function"},{"inputs":[],"name":"ROLE_PATIENT","outputs":[{"internalType":"uint8","name":"","type":"uint8"}],"stateMutability":"view","type":"function"},{"inputs":[{"internalType":"bytes32","name":"recordId","type":"bytes32"},{"internalType":"address","name":"owner","type":"address"}],"name":"createPolicy","outputs":[],"stateMutability":"nonpayable","type":"function"},{"inputs":[{"internalType":"bytes32","name":"recordId","type":"bytes32"}],"name":"getPolicyInfo","outputs":[{"internalType":"address","name":"owner","type":"address"},{"internalType":"bool","name":"consentGiven","type":"bool"},{"internalType":"uint256","name":"consentTimestamp","type":"uint256"}],"stateMutability":"view","type":"function"},{"inputs":[{"internalType":"bytes32","name":"recordId","type":"bytes32"},{"internalType":"address","name":"grantee","type":"address"}],"name":"getRole","outputs":[{"internalType":"uint8","name":"","type":"uint8"}],"stateMutability":"view","type":"function"},{"inputs":[{"internalType":"bytes32","name":"recordId","type":"bytes32"},{"internalType":"address","name":"grantee","type":"address"},{"internalType":"uint8","name":"role","type":"uint8"}],"name":"grantRole","outputs":[],"stateMutability":"nonpayable","type":"function"},{"inputs":[{"internalType":"bytes32","name":"recordId","type":"bytes32"},{"internalType":"address","name":"caller","type":"address"},{"internalType":"uint8","name":"minRole","type":"uint8"}],"name":"isAuthorised","outputs":[{"internalType":"bool","name":"authorised","type":"bool"}],"stateMutability":"view","type":"function"},{"inputs":[{"internalType":"bytes32","name":"recordId","type":"bytes32"},{"internalType":"address","name":"grantee","type":"address"}],"name":"revokeRole","outputs":[],"stateMutability":"nonpayable","type":"function"},{"inputs":[{"internalType":"bytes32","name":"recordId","type":"bytes32"},{"internalType":"bool","name":"consent","type":"bool"}],"name":"setConsent","outputs":[],"stateMutability":"nonpayable","type":"function"}],"evm":{"bytecode":{"linkReferences":{},"object":"608060405234801561001057600080fd5b50610911806100206000396000f3fe608060405234801561001057600080fd5b50600436106100a95760003560e01c8063a3ddf60b11610071578063a3ddf60b14610135578063a801e49114610158578063ae93cb1014610160578063d391014b14610173578063d547741f1461017b578063ee4c1adb1461018e57600080fd5b8063013444b5146100ae57806319700678146100cd57806329a3bcf5146100e257806377cc16e01461011a5780637f8c70a814610122575b600080fd5b6100b6600281565b60405160ff90911681526020015b60405180910390f35b6100e06100db366004610791565b6101a1565b005b6100f56100f03660046107c6565b61029b565b604080516001600160a01b0390941684529115156020840152908201526060016100c4565b6100b6600081565b6100e06101303660046107fb565b610308565b6101486101433660046107fb565b6104a0565b60405190151581526020016100c4565b6100b6600181565b6100e061016e366004610841565b61054c565b6100b6600381565b6100e0610189366004610841565b610660565b6100b661019c366004610841565b61072c565b60008281526020819052604090205482906001600160a01b03166101e05760405162461bcd60e51b81526004016101d79061086d565b60405180910390fd5b60008381526020819052604090205483906001600160a01b031633146102185760405162461bcd60e51b81526004016101d7906108a4565b6000848152602081905260409020805484158015600160a01b0260ff60a01b199092169190911790915561025c576000848152602081905260409020426001909101555b6040518315158152339085907f4988c4e8f0714ecb6bd8b429dc671c99e12d9f785a9364dd939f3eddb1aa35db9060200160405180910390a350505050565b6000818152602081905260408120548190819084906001600160a01b03166102d55760405162461bcd60e51b81526004016101d79061086d565b50505060009182525060208190526040902080546001909101546001600160a01b03821692600160a01b90920460ff1691565b60008381526020819052604090205483906001600160a01b031661033e5760405162461bcd60e51b81526004016101d79061086d565b60008481526020819052604090205484906001600160a01b031633146103765760405162461bcd60e51b81526004016101d7906108a4565b600160ff84161080159061038e5750600360ff841611155b6103da5760405162461bcd60e51b815260206004820152601a60248201527f416363657373506f6c6963793a20696e76616c696420726f6c6500000000000060448201526064016101d7565b6001600160a01b0384166104305760405162461bcd60e51b815260206004820152601a60248201527f416363657373506f6c6963793a207a65726f206772616e74656500000000000060448201526064016101d7565b6000858152602081815260408083206001600160a01b0388168085526002909101835292819020805460ff191660ff8816908117909155905190815287917f29234acc3df5deac6596838ed3edeef47a8af22970a9a8dde9fb0942c1b31558910160405180910390a35050505050565b60008381526020819052604081205484906001600160a01b03166104d65760405162461bcd60e51b81526004016101d79061086d565b60008581526020819052604090208054600160a01b900460ff166104fe576000925050610544565b80546001600160a01b0380871691160361051c576001925050610544565b6001600160a01b03851660009081526002909101602052604090205460ff8085169116101591505b509392505050565b6001600160a01b0381166105a25760405162461bcd60e51b815260206004820152601860248201527f416363657373506f6c6963793a207a65726f206f776e6572000000000000000060448201526064016101d7565b6000828152602081905260409020546001600160a01b0316156106075760405162461bcd60e51b815260206004820152601b60248201527f416363657373506f6c6963793a20706f6c69637920657869737473000000000060448201526064016101d7565b60008281526020819052604080822080546001600160a81b0319166001600160a01b0385169081179091559051909184917fe2914980516df94c6fce399d4a7570a14c9d6b2560a5c29343fd06aba98ed80c9190a35050565b60008281526020819052604090205482906001600160a01b03166106965760405162461bcd60e51b81526004016101d79061086d565b60008381526020819052604090205483906001600160a01b031633146106ce5760405162461bcd60e51b81526004016101d7906108a4565b6000848152602081815260408083206001600160a01b0387168085526002909101909252808320805460ff1916905551909186917f155aaafb6329a2098580462df33ec4b7441b19729b9601c5fc17ae1cf99a8a529190a350505050565b60008281526020819052604081205483906001600160a01b03166107625760405162461bcd60e51b81526004016101d79061086d565b50506000918252602082815260408084206001600160a01b039390931684526002909201905290205460ff1690565b600080604083850312156107a457600080fd5b82359150602083013580151581146107bb57600080fd5b809150509250929050565b6000602082840312156107d857600080fd5b5035919050565b80356001600160a01b03811681146107f657600080fd5b919050565b60008060006060848603121561081057600080fd5b83359250610820602085016107df565b9150604084013560ff8116811461083657600080fd5b809150509250925092565b6000806040838503121561085457600080fd5b82359150610864602084016107df565b90509250929050565b60208082526017908201527f416363657373506f6c6963793a206e6f20706f6c696379000000000000000000604082015260600190565b60208082526017908201527f416363657373506f6c6963793a206e6f74206f776e657200000000000000000060408201526060019056fea26469706673582212205004ae13d5c6d604baefc6cfe0938d37b9e9e5356ab6ad1cfaccd85424f2e2b564736f6c63430008140033","opcodes":"PUSH1 0x80 PUSH1 0x40 MSTORE CALLVALUE DUP1 ISZERO PUSH2 0x10 JUMPI PUSH1 0x0 DUP1 REVERT JUMPDEST POP PUSH2 0x911 DUP1 PUSH2 0x20 PUSH1 0x0 CODECOPY PUSH1 0x0 RETURN INVALID PUSH1 0x80 PUSH1 0x40 MSTORE CALLVALUE DUP1 ISZERO PUSH2 0x10 JUMPI PUSH1 0x0 DUP1 REVERT JUMPDEST POP PUSH1 0x4 CALLDATASIZE LT PUSH2 0xA9 JUMPI PUSH1 0x0 CALLDATALOAD PUSH1 0xE0 SHR DUP1 PUSH4 0xA3DDF60B GT PUSH2 0x71 JUMPI DUP1 PUSH4 0xA3DDF60B EQ PUSH2 0x135 JUMPI DUP1 PUSH4 0xA801E491 EQ PUSH2 0x158 JUMPI DUP1 PUSH4 0xAE93CB10 EQ PUSH2 0x160 JUMPI DUP1 PUSH4 0xD391014B EQ PUSH2 0x173 JUMPI DUP1 PUSH4 0xD547741F EQ PUSH2 0x17B JUMPI DUP1 PUSH4 0xEE4C1ADB EQ PUSH2 0x18E JUMPI PUSH1 0x0 DUP1 REVERT JUMPDEST DUP1 PUSH4 0x13444B5 EQ PUSH2 0xAE JUMPI DUP1 PUSH4 0x19700678 EQ PUSH2 0xCD JUMPI DUP1 PUSH4 0x29A3BCF5 EQ PUSH2 0xE2 JUMPI DUP1 PUSH4 0x77CC16E0 EQ PUSH2 0x11A JUMPI DUP1 PUSH4 0x7F8C70A8 EQ PUSH2 0x122 JUMPI JUMPDEST PUSH1 0x0 DUP1 REVERT JUMPDEST PUSH2 0xB6 PUSH1 0x2 DUP2 JUMP JUMPDEST PUSH1 0x40 MLOAD PUSH1 0xFF SWAP1 SWAP2 AND DUP2 MSTORE PUSH1 0x20 ADD JUMPDEST PUSH1 0x40 MLOAD DUP1 SWAP2 SUB SWAP1 RETURN JUMPDEST PUSH2 0xE0 PUSH2 0xDB CALLDATASIZE PUSH1 0x4 PUSH2 0x791 JUMP JUMPDEST PUSH2 0x1A1 JUMP JUMPDEST STOP JUMPDEST PUSH2 0xF5 PUSH2 0xF0 CALLDATASIZE PUSH1 0x4 PUSH2 0x7C6 JUMP JUMPDEST PUSH2 0x29B JUMP JUMPDEST PUSH1 0x40 DUP1 MLOAD PUSH1 0x1 PUSH1 0x1 PUSH1 0xA0 SHL SUB SWAP1 SWAP5 AND DUP5 MSTORE SWAP2 ISZERO ISZERO PUSH1 0x20 DUP5 ADD MSTORE SWAP1 DUP3 ADD MSTORE PUSH1 0x60 ADD PUSH2 0xC4 JUMP JUMPDEST PUSH2 0xB6 PUSH1 0x0 DUP2 JUMP JUMPDEST PUSH2 0xE0 PUSH2 0x130 CALLDATASIZE PUSH1 0x4 PUSH2 0x7FB JUMP JUMPDEST PUSH2 0x308 JUMP JUMPDEST PUSH2 0x148 PUSH2 0x143 CALLDATASIZE PUSH1 0x4 PUSH2 0x7FB JUMP JUMPDEST PUSH2 0x4A0 JUMP JUMPDEST PUSH1 0x40 MLOAD SWAP1 ISZERO ISZERO DUP2 MSTORE PUSH1 0x20 ADD PUSH2 0xC4 JUMP JUMPDEST PUSH2 0xB6 PUSH1 0x1 DUP2 JUMP JUMPDEST PUSH2 0xE0 PUSH2 0x16E CALLDATASIZE PUSH1 0x4 PUSH2 0x841 JUMP JUMPDEST PUSH2 0x54C JUMP JUMPDEST PUSH2 0xB6 PUSH1 0x3 DUP2 JUMP JUMPDEST PUSH2 0xE0 PUSH2 0x189 CALLDATASIZE PUSH1 0x4 PUSH2 0x841 JUMP JUMPDEST PUSH2 0x660 JUMP JUMPDEST PUSH2 0xB6 PUSH2 0x19C CALLDATASIZE PUSH1 0x4 PUSH2 0x841 JUMP JUMPDEST PUSH2 0x72C JUMP JUMPDEST PUSH1 0x0 DUP3 DUP2 MSTORE PUSH1 0x20 DUP2 SWAP1 MSTORE PUSH1 0x40 SWAP1 KECCAK256 SLOAD DUP3 SWAP1 PUSH1 0x1 PUSH1 0x1 PUSH1 0xA0 SHL SUB AND PUSH2 0x1E0 JUMPI PUSH1 0x40 MLOAD PUSH3 0x461BCD PUSH1 0xE5 SHL DUP2 MSTORE PUSH1 0x4 ADD PUSH2 0x1D7 SWAP1 PUSH2 0x86D JUMP JUMPDEST PUSH1 0x40 MLOAD DUP1 SWAP2 SUB SWAP1 REVERT JUMPDEST PUSH1 0x0 DUP4 DUP2 MSTORE PUSH1 0x20 DUP2 SWAP1 MSTORE PUSH1 0x40 SWAP1 KECCAK256 SLOAD DUP4 SWAP1 PUSH1 0x1 PUSH1 0x1 PUSH1 0xA0 SHL SUB AND CALLER EQ PUSH2 0x218 JUMPI PUSH1 0x40 MLOAD PUSH3 0x461BCD PUSH1 0xE5 SHL DUP2 MSTORE PUSH1 0x4 ADD PUSH2 0x1D7 SWAP1 PUSH2 0x8A4 JUMP JUMPDEST PUSH1 0x0 DUP5 DUP2 MSTORE PUSH1 0x20 DUP2 SWAP1 MSTORE PUSH1 0x40 SWAP1 KECCAK256 DUP1 SLOAD DUP5 ISZERO DUP1 ISZERO PUSH1 0x1 PUSH1 0xA0 SHL MUL PUSH1 0xFF PUSH1 0xA0 SHL NOT SWAP1 SWAP3 AND SWAP2 SWAP1 SWAP2 OR SWAP1 SWAP2 SSTORE PUSH2 0x25C JUMPI PUSH1 0x0 DUP5 DUP2 MSTORE PUSH1 0x20 DUP2 SWAP1 MSTORE PUSH1 0x40 SWAP1 KECCAK256 TIMESTAMP PUSH1 0x1 SWAP1 SWAP2 ADD SSTORE JUMPDEST PUSH1 0x40 MLOAD DUP4 ISZERO ISZERO DUP2 MSTORE CALLER SWAP1 DUP6 SWAP1 PUSH32 0x4988C4E8F0714ECB6BD8B429DC671C99E12D9F785A9364DD939F3EDDB1AA35DB SWAP1 PUSH1 0x20 ADD PUSH1 0x40 MLOAD DUP1 SWAP2 SUB SWAP1 LOG3 POP POP POP POP JUMP JUMPDEST PUSH1 0x0 DUP2 DUP2 MSTORE PUSH1 0x20 DUP2 SWAP1 MSTORE PUSH1 0x40 DUP2 KECCAK256 SLOAD DUP2 SWAP1 DUP2 SWAP1 DUP5 SWAP1 PUSH1 0x1 PUSH1 0x1 PUSH1 0xA0 SHL SUB AND PUSH2 0x2D5 JUMPI PUSH1 0x40 MLOAD PUSH3 0x461BCD PUSH1 0xE5 SHL DUP2 MSTORE PUSH1 0x4 ADD PUSH2 0x1D7 SWAP1 PUSH2 0x86D JUMP JUMPDEST POP POP POP PUSH1 0x0 SWAP2 DUP3 MSTORE POP PUSH1 0x20 DUP2 SWAP1 MSTORE PUSH1 0x40 SWAP1 KECCAK256 DUP1 SLOAD PUSH1 0x1 SWAP1 SWAP2 ADD SLOAD PUSH1 0x1 PUSH1 0x1 PUSH1 0xA0 SHL SUB DUP3 AND SWAP3 PUSH1 0x1 PUSH1 0xA0 SHL SWAP1 SWAP3 DIV PUSH1 0xFF AND SWAP2 JUMP JUMPDEST PUSH1 0x0 DUP4 DUP2 MSTORE PUSH1 0x20 DUP2 SWAP1 MSTORE PUSH1 0x40 SWAP1 KECCAK256 SLOAD DUP4 SWAP1 PUSH1 0x1 PUSH1 0x1 PUSH1 0xA0 SHL SUB AND PUSH2 0x33E JUMPI PUSH1 0x40 MLOAD PUSH3 0x461BCD PUSH1 0xE5 SHL DUP2 MSTORE PUSH1 0x4 ADD PUSH2 0x1D7 SWAP1 PUSH2 0x86D JUMP JUMPDEST PUSH1 0x0 DUP5 DUP2 MSTORE PUSH1 0x20 DUP2 SWAP1 MSTORE PUSH1 0x40 SWAP1 KECCAK256 SLOAD DUP5 SWAP1 PUSH1 0x1 PUSH1 0x1 PUSH1 0xA0 SHL SUB AND CALLER EQ PUSH2 0x376 JUMPI PUSH1 0x40 MLOAD PUSH3 0x461BCD PUSH1 0xE5 SHL DUP2 MSTORE PUSH1 0x4 ADD PUSH2 0x1D7 SWAP1 PUSH2 0x8A4 JUMP JUMPDEST PUSH1 0x1 PUSH1 0xFF DUP5 AND LT DUP1 ISZERO SWAP1 PUSH2 0x38E JUMPI POP PUSH1 0x3 PUSH1 0xFF DUP5 AND GT ISZERO JUMPDEST PUSH2 0x3DA JUMPI PUSH1 0x40 MLOAD PUSH3 0x461BCD PUSH1 0xE5 SHL DUP2 MSTORE PUSH1 0x20 PUSH1 0x4 DUP3 ADD MSTORE PUSH1 0x1A PUSH1 0x24 DUP3 ADD MSTORE PUSH32 0x416363657373506F6C6963793A20696E76616C696420726F6C65000000000000 PUSH1 0x44 DUP3 ADD MSTORE PUSH1 0x64 ADD PUSH2 0x1D7 JUMP JUMPDEST PUSH1 0x1 PUSH1 0x1 PUSH1 0xA0 SHL SUB DUP5 AND PUSH2 0x430 JUMPI PUSH1 0x40 MLOAD PUSH3 0x461BCD PUSH1 0xE5 SHL DUP2 MSTORE PUSH1 0x20 PUSH1 0x4 DUP3 ADD MSTORE PUSH1 0x1A PUSH1 0x24 DUP3 ADD MSTORE PUSH32 0x416363657373506F6C6963793A207A65726F206772616E746565000000000000 PUSH1 0x44 DUP3 ADD MSTORE PUSH1 0x64 ADD PUSH2 0x1D7 JUMP JUMPDEST PUSH1 0x0 DUP6 DUP2 MSTORE PUSH1 0x20 DUP2 DUP2 MSTORE PUSH1 0x40 DUP1 DUP4 KECCAK256 PUSH1 0x1 PUSH1 0x1 PUSH1 0xA0 SHL SUB DUP9 AND DUP1 DUP6 MSTORE PUSH1 0x2 SWAP1 SWAP2 ADD DUP4 MSTORE SWAP3 DUP2 SWAP1 KECCAK256 DUP1 SLOAD PUSH1 0xFF NOT AND PUSH1 0xFF DUP9 AND SWAP1 DUP2 OR SWAP1 SWAP2 SSTORE SWAP1 MLOAD SWAP1 DUP2 MSTORE DUP8 SWAP2 PUSH32 0x29234ACC3DF5DEAC6596838ED3EDEEF47A8AF22970A9A8DDE9FB0942C1B31558 SWAP2 ADD PUSH1 0x40 MLOAD DUP1 SWAP2 SUB SWAP1 LOG3 POP POP POP POP POP JUMP JUMPDEST PUSH1 0x0 DUP4 DUP2 MSTORE PUSH1 0x20 DUP2 SWAP1 MSTORE PUSH1 0x40 DUP2 KECCAK256 SLOAD DUP5 SWAP1 PUSH1 0x1 PUSH1 0x1 PUSH1 0xA0 SHL SUB AND PUSH2 0x4D6 JUMPI PUSH1 0x40 MLOAD PUSH3 0x461BCD PUSH1 0xE5 SHL DUP2 MSTORE PUSH1 0x4 ADD PUSH2 0x1D7 SWAP1 PUSH2 0x86D JUMP JUMPDEST PUSH1 0x0 DUP6 DUP2 MSTORE PUSH1 0x20 DUP2 SWAP1 MSTORE PUSH1 0x40 SWAP1 KECCAK256 DUP1 SLOAD PUSH1 0x1 PUSH1 0xA0 SHL SWAP1 DIV PUSH1 0xFF AND PUSH2 0x4FE JUMPI PUSH1 0x0 SWAP3 POP POP PUSH2 0x544 JUMP JUMPDEST DUP1 SLOAD PUSH1 0x1 PUSH1 0x1 PUSH1 0xA0 SHL SUB DUP1 DUP8 AND SWAP2 AND SUB PUSH2 0x51C JUMPI PUSH1 0x1 SWAP3 POP POP PUSH2 0x544 JUMP JUMPDEST PUSH1 0x1 PUSH1 0x1 PUSH1 0xA0 SHL SUB DUP6 AND PUSH1 0x0 SWAP1 DUP2 MSTORE PUSH1 0x2 SWAP1 SWAP2 ADD PUSH1 0x20 MSTORE PUSH1 0x40 SWAP1 KECCAK256 SLOAD PUSH1 0xFF DUP1 DUP6 AND SWAP2 AND LT ISZERO SWAP2 POP JUMPDEST POP SWAP4 SWAP3 POP POP POP JUMP JUMPDEST PUSH1 0x1 PUSH1 0x1 PUSH1 0xA0 SHL SUB DUP2 AND PUSH2 0x5A2 JUMPI PUSH1 0x40 MLOAD PUSH3 0x461BCD PUSH1 0xE5 SHL DUP2 MSTORE PUSH1 0x20 PUSH1 0x4 DUP3 ADD MSTORE PUSH1 0x18 PUSH1 0x24 DUP3 ADD MSTORE PUSH32 0x416363657373506F6C6963793A207A65726F206F776E65720000000000000000 PUSH1 0x44 DUP3 ADD MSTORE PUSH1 0x64 ADD PUSH2 0x1D7 JUMP JUMPDEST PUSH1 0x0 DUP3 DUP2 MSTORE PUSH1 0x20 DUP2 SWAP1 MSTORE PUSH1 0x40 SWAP1 KECCAK256 SLOAD PUSH1 0x1 PUSH1 0x1 PUSH1 0xA0 SHL SUB AND ISZERO PUSH2 0x607 JUMPI PUSH1 0x40 MLOAD PUSH3 0x461BCD PUSH1 0xE5 SHL DUP2 MSTORE PUSH1 0x20 PUSH1 0x4 DUP3 ADD MSTORE PUSH1 0x1B PUSH1 0x24 DUP3 ADD MSTORE PUSH32 0x416363657373506F6C6963793A20706F6C696379206578697374730000000000 PUSH1 0x44 DUP3 ADD MSTORE PUSH1 0x64 ADD PUSH2 0x1D7 JUMP JUMPDEST PUSH1 0x0 DUP3 DUP2 MSTORE PUSH1 0x20 DUP2 SWAP1 MSTORE PUSH1 0x40 DUP1 DUP3 KECCAK256 DUP1 SLOAD PUSH1 0x1 PUSH1 0x1 PUSH1 0xA8 SHL SUB NOT AND PUSH1 0x1 PUSH1 0x1 PUSH1 0xA0 SHL SUB DUP6 AND SWAP1 DUP2 OR SWAP1 SWAP2 SSTORE SWAP1 MLOAD SWAP1 SWAP2 DUP5 SWAP2 PUSH32 0xE2914980516DF94C6FCE399D4A7570A14C9D6B2560A5C29343FD06ABA98ED80C SWAP2 SWAP1 LOG3 POP POP JUMP JUMPDEST PUSH1 0x0 DUP3 DUP2 MSTORE PUSH1 0x20 DUP2 SWAP1 MSTORE PUSH1 0x40 SWAP1 KECCAK256 SLOAD DUP3 SWAP1 PUSH1 0x1 PUSH1 0x1 PUSH1 0xA0 SHL SUB AND PUSH2 0x696 JUMPI PUSH1 0x40 MLOAD PUSH3 0x461BCD PUSH1 0xE5 SHL DUP2 MSTORE PUSH1 0x4 ADD PUSH2 0x1D7 SWAP1 PUSH2 0x86D JUMP JUMPDEST PUSH1 0x0 DUP4 DUP2 MSTORE PUSH1 0x20 DUP2 SWAP1 MSTORE PUSH1 0x40 SWAP1 KECCAK256 SLOAD DUP4 SWAP1 PUSH1 0x1 PUSH1 0x1 PUSH1 0xA0 SHL SUB AND CALLER EQ PUSH2 0x6CE JUMPI PUSH1 0x40 MLOAD PUSH3 0x461BCD PUSH1 0xE5 SHL DUP2 MSTORE PUSH1 0x4 ADD PUSH2 0x1D7 SWAP1 PUSH2 0x8A4 JUMP JUMPDEST PUSH1 0x0 DUP5 DUP2 MSTORE PUSH1 0x20 DUP2 DUP2 MSTORE PUSH1 0x40 DUP1 DUP4 KECCAK256 PUSH1 0x1 PUSH1 0x1 PUSH1 0xA0 SHL SUB DUP8 AND DUP1 DUP6 MSTORE PUSH1 0x2 SWAP1 SWAP2 ADD SWAP1 SWAP3 MSTORE DUP1 DUP4 KECCAK256 DUP1 SLOAD PUSH1 0xFF NOT AND SWAP1 SSTORE MLOAD SWAP1 SWAP2 DUP7 SWAP2 PUSH32 0x155AAAFB6329A2098580462DF33EC4B7441B19729B9601C5FC17AE1CF99A8A52 SWAP2 SWAP1 LOG3 POP POP POP POP JUMP JUMPDEST PUSH1 0x0 DUP3 DUP2 MSTORE PUSH1 0x20 DUP2 SWAP1 MSTORE PUSH1 0x40 DUP2 KECCAK256 SLOAD DUP4 SWAP1 PUSH1 0x1 PUSH1 0x1 PUSH1 0xA0 SHL SUB AND PUSH2 0x762 JUMPI PUSH1 0x40 MLOAD PUSH3 0x461BCD PUSH1 0xE5 SHL DUP2 MSTORE PUSH1 0x4 ADD PUSH2 0x1D7 SWAP1 PUSH2 0x86D JUMP JUMPDEST POP POP PUSH1 0x0 SWAP2 DUP3 MSTORE PUSH1 0x20 DUP3 DUP2 MSTORE PUSH1 0x40 DUP1 DUP5 KECCAK256 PUSH1 0x1 PUSH1 0x1 PUSH1 0xA0 SHL SUB SWAP4 SWAP1 SWAP4 AND DUP5 MSTORE PUSH1 0x2 SWAP1 SWAP3 ADD SWAP1 MSTORE SWAP1 KECCAK256 SLOAD PUSH1 0xFF AND SWAP1 JUMP JUMPDEST PUSH1 0x0 DUP1 PUSH1 0x40 DUP4 DUP6 SUB SLT ISZERO PUSH2 0x7A4 JUMPI PUSH1 0x0 DUP1 REVERT JUMPDEST DUP3 CALLDATALOAD SWAP2 POP PUSH1 0x20 DUP4 ADD CALLDATALOAD DUP1 ISZERO ISZERO DUP2 EQ PUSH2 0x7BB JUMPI PUSH1 0x0 DUP1 REVERT JUMPDEST DUP1 SWAP2 POP POP SWAP3 POP SWAP3 SWAP1 POP JUMP JUMPDEST PUSH1 0x0 PUSH1 0x20 DUP3 DUP5 SUB SLT ISZERO PUSH2 0x7D8 JUMPI PUSH1 0x0 DUP1 REVERT JUMPDEST POP CALLDATALOAD SWAP2 SWAP1 POP JUMP JUMPDEST DUP1 CALLDATALOAD PUSH1 0x1 PUSH1 0x1 PUSH1 0xA0 SHL SUB DUP2 AND DUP2 EQ PUSH2 0x7F6 JUMPI PUSH1 0x0 DUP1 REVERT JUMPDEST SWAP2 SWAP1 POP JUMP JUMPDEST PUSH1 0x0 DUP1 PUSH1 0x0 PUSH1 0x60 DUP5 DUP7 SUB SLT ISZERO PUSH2 0x810 JUMPI PUSH1 0x0 DUP1 REVERT JUMPDEST DUP4 CALLDATALOAD SWAP3 POP PUSH2 0x820 PUSH1 0x20 DUP6 ADD PUSH2 0x7DF JUMP JUMPDEST SWAP2 POP PUSH1 0x40 DUP5 ADD CALLDATALOAD PUSH1 0xFF DUP2 AND DUP2 EQ PUSH2 0x836 JUMPI PUSH1 0x0 DUP1 REVERT JUMPDEST DUP1 SWAP2 POP POP SWAP3 POP SWAP3 POP SWAP3 JUMP JUMPDEST PUSH1 0x0 DUP1 PUSH1 0x40 DUP4 DUP6 SUB SLT ISZERO PUSH2 0x854 JUMPI PUSH1 0x0 DUP1 REVERT JUMPDEST DUP3 CALLDATALOAD SWAP2 POP PUSH2 0x864 PUSH1 0x20 DUP5 ADD PUSH2 0x7DF JUMP JUMPDEST SWAP1 POP SWAP3 POP SWAP3 SWAP1 POP JUMP JUMPDEST PUSH1 0x20 DUP1 DUP3 MSTORE PUSH1 0x17 SWAP1 DUP3 ADD MSTORE PUSH32 0x416363657373506F6C6963793A206E6F20706F6C696379000000000000000000 PUSH1 0x40 DUP3 ADD MSTORE PUSH1 0x60 ADD SWAP1 JUMP JUMPDEST PUSH1 0x20 DUP1 DUP3 MSTORE PUSH1 0x17 SWAP1 DUP3 ADD MSTORE PUSH32 0x416363657373506F6C6963793A206E6F74206F776E6572000000000000000000 PUSH1 0x40 DUP3 ADD MSTORE PUSH1 0x60 ADD SWAP1 JUMP INVALID LOG2 PUSH5 0x6970667358 0x22 SLT KECCAK256 POP DIV 0xAE SGT 0xD5 0xC6 0xD6 DIV 0xBA 0xEF 0xC6 0xCF 0xE0 SWAP4 DUP14 CALLDATACOPY 0xB9 0xE9 0xE5 CALLDATALOAD PUSH11 0xB6AD1CFACCD85424F2E2B5 PUSH5 0x736F6C6343 STOP ADDMOD EQ STOP CALLER "},"methodIdentifiers":{"ROLE_ADMIN()":"d391014b","ROLE_LAB()":"013444b5","ROLE_NONE()":"77cc16e0","ROLE_PATIENT()":"a801e491","createPolicy(bytes32,address)":"ae93cb10","getPolicyInfo(bytes32)":"29a3bcf5","getRole(bytes32,address)":"ee4c1adb","grantRole(bytes32,address,uint8)":"7f8c70a8","isAuthorised(bytes32,address,uint8)":"a3ddf60b","revokeRole(bytes32,address)":"d547741f","setConsent(bytes32,bool)":"19700678"}}}}}