{
  "_format": "hh-sol-artifact-1",
  "contractName": "AccessPolicy",
  "sourceName": "contracts/AccessPolicy.sol",
  "abi": [
    {
      "anonymous": false,
      "inputs": [
        {
          "indexed": true,
          "internalType": "bytes32",
          "name": "recordId",
          "type": "bytes32"
        },
        {
          "indexed": true,
          "internalType": "address",
          "name": "owner",
          "type": "address"
        },
        {
          "indexed": false,
          "internalType": "bool",
          "name": "consent",
          "type": "bool"
        }
      ],
      "name": "ConsentToggled",
      "type": "event"
    },
    {
      "anonymous": false,
      "inputs": [
        {
          "indexed": true,
          "internalType": "bytes32",
          "name": "recordId",
          "type": "bytes32"
        },
        {
          "indexed": true,
          "internalType": "address",
          "name": "owner",
          "type": "address"
        }
      ],
      "name": "PolicyCreated",
      "type": "event"
    },
    {
      "anonymous": false,
      "inputs": [
        {
          "indexed": true,
          "internalType": "bytes32",
          "name": "recordId",
          "type": "bytes32"
        },
        {
          "indexed": true,
          "internalType": "address",
          "name": "grantee",
          "type": "address"
        },
        {
          "indexed": false,
          "internalType": "uint8",
          "name": "role",
          "type": "uint8"
        }
      ],
      "name": "RoleGranted",
      "type": "event"
    },
    {
      "anonymous": false,
      "inputs": [
        {
          "indexed": true,
          "internalType": "bytes32",
          "name": "recordId",
          "type": "bytes32"
        },
        {
          "indexed": true,
          "internalType": "address",
          "name": "grantee",
          "type": "address"
        }
      ],
      "name": "RoleRevoked",
      "type": "event"
    },
    {
      "inputs": [],
      "name": "ROLE_ADMIN",
      "outputs": [
        {
          "internalType": "uint8",
          "name": "",
          "type": "uint8"
        }
      ],
      "stateMutability": "view",
      "type": "function"
    },
    {
      "inputs": [],
      "name": "ROLE_LAB",
      "outputs": [
        {
          "internalType": "uint8",
          "name": "",
          "type": "uint8"
        }
      ],
      "stateMutability": "view",
      "type": "function"
    },
    {
      "inputs": [],
      "name": "ROLE_NONE",
      "outputs": [
        {
          "internalType": "uint8",
          "name": "",
          "type": "uint8"
        }
      ],
      "stateMutability": "view",
      "type": "function"
    },
    {
      "inputs": [],
      "name": "ROLE_PATIENT",
      "outputs": [
        {
          "internalType": "uint8",
          "name": "",
          "type": "uint8"
        }
      ],
      "stateMutability": "view",
      "type": "function"
    },
    {
      "inputs": [
        {
          "internalType": "bytes32",
          "name": "recordId",
          "type": "bytes32"
        },
        {
          "internalType": "address",
          "name": "owner",
          "type": "address"
        }
      ],
      "name": "createPolicy",
      "outputs": [],
      "stateMutability": "nonpayable",
      "type": "function"
    },
    {
      "inputs": [
        {
          "internalType": "bytes32",
          "name": "recordId",
          "type": "bytes32"
        }
      ],
      "name": "getPolicyInfo",
      "outputs": [
        {
          "internalType": "address",
          "name": "owner",
          "type": "address"
        },
        {
          "internalType": "bool",
          "name": "consentGiven",
          "type": "bool"
        },
        {
          "internalType": "uint256",
          "name": "consentTimestamp",
          "type": "uint256"
        }
      ],
      "stateMutability": "view",
      "type": "function"
    },
    {
      "inputs": [
        {
          "internalType": "bytes32",
          "name": "recordId",
          "type": "bytes32"
        },
        {
          "internalType": "address",
          "name": "grantee",
          "type": "address"
        }
      ],
      "name": "getRole",
      "outputs": [
        {
          "internalType": "uint8",
          "name": "",
          "type": "uint8"
        }
      ],
      "stateMutability": "view",
      "type": "function"
    },
    {
      "inputs": [
        {
          "internalType": "bytes32",
          "name": "recordId",
          "type": "bytes32"
        },
        {
          "internalType": "address",
          "name": "grantee",
          "type": "address"
        },
        {
          "internalType": "uint8",
          "name": "role",
          "type": "uint8"
        }
      ],
      "name": "grantRole",
      "outputs": [],
      "stateMutability": "nonpayable",
      "type": "function"
    },
    {
      "inputs": [
        {
          "internalType": "bytes32",
          "name": "recordId",
          "type": "bytes32"
        },
        {
          "internalType": "address",
          "name": "caller",
          "type": "address"
        },
        {
          "internalType": "uint8",
          "name": "minRole",
          "type": "uint8"
        }
      ],
      "name": "isAuthorised",
      "outputs": [
        {
          "internalType": "bool",
          "name": "authorised",
          "type": "bool"
        }
      ],
      "stateMutability": "view",
      "type": "function"
    },
    {
      "inputs": [
        {
          "internalType": "bytes32",
          "name": "recordId",
          "type": "bytes32"
        },
        {
          "internalType": "address",
          "name": "grantee",
          "type": "address"
        }
      ],
      "name": "revokeRole",
      "outputs": [],
      "stateMutability": "nonpayable",
      "type": "function"
    },
    {
      "inputs": [
        {
          "internalType": "bytes32",
          "name": "recordId",
          "type": "bytes32"
        },
        {
          "internalType": "bool",
          "name": "consent",
          "type": "bool"
        }
      ],
      "name": "setConsent",
      "outputs": [],
      "stateMutability": "nonpayable",
      "type": "function"
    }
  ],
  "bytecode": "0x608060405234801561001057600080fd5b50610911806100206000396000f3fe608060405234801561001057600080fd5b50600436106100a95760003560e01c8063a3ddf60b11610071578063a3ddf60b14610135578063a801e49114610158578063ae93cb1014610160578063d391014b14610173578063d547741f1461017b578063ee4c1adb1461018e57600080fd5b8063013444b5146100ae57806319700678146100cd57806329a3bcf5146100e257806377cc16e01461011a5780637f8c70a814610122575b600080fd5b6100b6600281565b60405160ff90911681526020015b60405180910390f35b6100e06100db366004610791565b6101a1565b005b6100f56100f03660046107c6565b61029b565b604080516001600160a01b0390941684529115156020840152908201526060016100c4565b6100b6600081565b6100e06101303660046107fb565b610308565b6101486101433660046107fb565b6104a0565b60405190151581526020016100c4565b6100b6600181565b6100e061016e366004610841565b61054c565b6100b6600381565b6100e0610189366004610841565b610660565b6100b661019c366004610841565b61072c565b60008281526020819052604090205482906001600160a01b03166101e05760405162461bcd60e51b81526004016101d79061086d565b60405180910390fd5b60008381526020819052604090205483906001600160a01b031633146102185760405162461bcd60e51b81526004016101d7906108a4565b6000848152602081905260409020805484158015600160a01b0260ff60a01b199092169190911790915561025c576000848152602081905260409020426001909101555b6040518315158152339085907f4988c4e8f0714ecb6bd8b429dc671c99e12d9f785a9364dd939f3eddb1aa35db9060200160405180910390a350505050565b6000818152602081905260408120548190819084906001600160a01b03166102d55760405162461bcd60e51b81526004016101d79061086d565b50505060009182525060208190526040902080546001909101546001600160a01b03821692600160a01b90920460ff1691565b60008381526020819052604090205483906001600160a01b031661033e5760405162461bcd60e51b81526004016101d79061086d565b60008481526020819052604090205484906001600160a01b031633146103765760405162461bcd60e51b81526004016101d7906108a4565b600160ff84161080159061038e5750600360ff841611155b6103da5760405162461bcd60e51b815260206004820152601a60248201527f416363657373506f6c6963793a20696e76616c696420726f6c6500000000000060448201526064016101d7565b6001600160a01b0384166104305760405162461bcd60e51b815260206004820152601a60248201527f416363657373506f6c6963793a207a65726f206772616e74656500000000000060448201526064016101d7565b6000858152602081815260408083206001600160a01b0388168085526002909101835292819020805460ff191660ff8816908117909155905190815287917f29234acc3df5deac6596838ed3edeef47a8af22970a9a8dde9fb0942c1b31558910160405180910390a35050505050565b60008381526020819052604081205484906001600160a01b03166104d65760405162461bcd60e51b81526004016101d79061086d565b60008581526020819052604090208054600160a01b900460ff166104fe576000925050610544565b80546001600160a01b0380871691160361051c576001925050610544565b6001600160a01b03851660009081526002909101602052604090205460ff8085169116101591505b509392505050565b6001600160a01b0381166105a25760405162461bcd60e51b815260206004820152601860248201527f416363657373506f6c6963793a207a65726f206f776e6572000000000000000060448201526064016101d7565b6000828152602081905260409020546001600160a01b0316156106075760405162461bcd60e51b815260206004820152601b60248201527f416363657373506f6c6963793a20706f6c69637920657869737473000000000060448201526064016101d7565b60008281526020819052604080822080546001600160a81b0319166001600160a01b0385169081179091559051909184917fe2914980516df94c6fce399d4a7570a14c9d6b2560a5c29343fd06aba98ed80c9190a35050565b60008281526020819052604090205482906001600160a01b03166106965760405162461bcd60e51b81526004016101d79061086d565b60008381526020819052604090205483906001600160a01b031633146106ce5760405162461bcd60e51b81526004016101d7906108a4565b6000848152602081815260408083206001600160a01b0387168085526002909101909252808320805460ff1916905551909186917f155aaafb6329a2098580462df33ec4b7441b19729b9601c5fc17ae1cf99a8a529190a350505050565b60008281526020819052604081205483906001600160a01b03166107625760405162461bcd60e51b81526004016101d79061086d565b50506000918252602082815260408084206001600160a01b039390931684526002909201905290205460ff1690565b600080604083850312156107a457600080fd5b82359150602083013580151581146107bb57600080fd5b809150509250929050565b6000602082840312156107d857600080fd5b5035919050565b80356001600160a01b03811681146107f657600080fd5b919050565b60008060006060848603121561081057600080fd5b83359250610820602085016107df565b9150604084013560ff8116811461083657600080fd5b809150509250925092565b6000806040838503121561085457600080fd5b82359150610864602084016107df565b90509250929050565b60208082526017908201527f416363657373506f6c6963793a206e6f20706f6c696379000000000000000000604082015260600190565b60208082526017908201527f416363657373506f6c6963793a206e6f74206f776e657200000000000000000060408201526060019056fea26469706673582212205004ae13d5c6d604baefc6cfe0938d37b9e9e5356ab6ad1cfaccd85424f2e2b564736f6c63430008140033",
  "linkReferences": {},
  "deployedLinkReferences": {}
}